{
  "transactions": [
    {
      "hash": "0xce97e796327941bb03ec51bd661a5195c84b0d528fc5c5e9f29a0ea56a5d44a1",
      "transactionType": "CREATE",
      "contractName": "FixedRateOracle",
      "contractAddress": "0xe8420d9484708e2c1023a14de331f58985f077cc",
      "function": null,
      "arguments": [
        "0x10982ad645D5A112606534d8567418Cf64c14cB5",
        "0xB8CE59FC3717ada4C02eaDF9682A9e934F625ebb",
        "1000000"
      ],
      "transaction": {
        "from": "0x3c7345f55389174db894c6dd37018da42551ec67",
        "gas": "0x87dc0",
        "value": "0x0",
        "input": "0x610100806040523461013a5760608161088b8038038091610020828561013e565b83398101031261013a5761003381610175565b604061004160208401610175565b920151801561012b57610065928260805260a05260c05260018060a01b0316610189565b60a05161007a906001600160a01b0316610189565b9060ff808316911681019060ff821161011757602610801561010a575b6100fb576100a76100b091610240565b60801b91610240565b1760e052604051610639908161025282396080518181816101380152610362015260a05181818160ca0152610340015260c05181818161019101526103ac015260e0518161038a0152f35b6302950f9560e51b5f5260045ffd5b50602660ff821611610097565b634e487b7160e01b5f52601160045260245ffd5b6301a4c16560e21b5f5260045ffd5b5f80fd5b601f909101601f19168101906001600160401b0382119082101761016157604052565b634e487b7160e01b5f52604160045260245ffd5b51906001600160a01b038216820361013a57565b63ffffffff6001600160a01b0382161115610227575f8091604051602081019063313ce56760e01b8252600481526101c260248261013e565b51915afa3d15610238573d906001600160401b03821161016157604051916101f4601f8201601f19166020018461013e565b82523d5f602084013e5b8061022d575b156102275760208180518101031261013a576020015160ff8116810361013a5790565b50601290565b506020815114610204565b6060906101fe565b60ff16604d811161011757600a0a9056fe60806040526004361015610011575f80fd5b5f3560e01c80630579e61f146102a357806306fdde03146101b45780632c4e722e1461015c5780635001f3b5146100ee578063999b93af146100805763ae68676c1461005b575f80fd5b3461007c57602061007461006e366102c3565b91610335565b604051908152f35b5f80fd5b3461007c575f7ffffffffffffffffffffffffffffffffffffffffffffffffffffffffffffffffc36011261007c57602060405173ffffffffffffffffffffffffffffffffffffffff7f0000000000000000000000000000000000000000000000000000000000000000168152f35b3461007c575f7ffffffffffffffffffffffffffffffffffffffffffffffffffffffffffffffffc36011261007c57602060405173ffffffffffffffffffffffffffffffffffffffff7f0000000000000000000000000000000000000000000000000000000000000000168152f35b3461007c575f7ffffffffffffffffffffffffffffffffffffffffffffffffffffffffffffffffc36011261007c5760206040517f00000000000000000000000000000000000000000000000000000000000000008152f35b3461007c575f7ffffffffffffffffffffffffffffffffffffffffffffffffffffffffffffffffc36011261007c576040516040810181811067ffffffffffffffff82111761027657604052600f8152604060208201917f4669786564526174654f7261636c65000000000000000000000000000000000083527fffffffffffffffffffffffffffffffffffffffffffffffffffffffffffffffe0601f8351948593602085525180918160208701528686015e5f85828601015201168101030190f35b7f4e487b71000000000000000000000000000000000000000000000000000000005f52604160045260245ffd5b3461007c5760406102b661006e366102c3565b8151908082526020820152f35b7ffffffffffffffffffffffffffffffffffffffffffffffffffffffffffffffffc606091011261007c576004359060243573ffffffffffffffffffffffffffffffffffffffff8116810361007c579060443573ffffffffffffffffffffffffffffffffffffffff8116810361007c5790565b90610387906103d1937f0000000000000000000000000000000000000000000000000000000000000000917f0000000000000000000000000000000000000000000000000000000000000000906103d4565b907f0000000000000000000000000000000000000000000000000000000000000000907f00000000000000000000000000000000000000000000000000000000000000009061050e565b90565b9073ffffffffffffffffffffffffffffffffffffffff80919493941691169181831480610499575b6104915773ffffffffffffffffffffffffffffffffffffffff1682149081610471575b5061046a5773ffffffffffffffffffffffffffffffffffffffff92507f4ca22af0000000000000000000000000000000000000000000000000000000005f526004521660245260445ffd5b5050600190565b905073ffffffffffffffffffffffffffffffffffffffff8316145f61041f565b505050505f90565b5073ffffffffffffffffffffffffffffffffffffffff811673ffffffffffffffffffffffffffffffffffffffff8516146103fc565b818102929181159184041417156104e157565b7f4e487b71000000000000000000000000000000000000000000000000000000005f52601160045260245ffd5b92608083901c926fffffffffffffffffffffffffffffffff169015610542576103d193929161053c916104ce565b91610552565b6103d19391610550916104ce565b905b9190808302927fffffffffffffffffffffffffffffffffffffffffffffffffffffffffffffffff82820991848310850180840393146105f557828411156105e85783910990825f03831680930480600302600218808202600203028082026002030280820260020302808202600203028082026002030280910260020302936001848483030494805f0304019211900302170290565b63ae47f7025f526004601cfd5b5050509081156105e857049056fea2646970667358221220d3e4da6288325c49c019a737b64a4981211ae0bee59a01a002eb78491e07415664736f6c634300081c003300000000000000000000000010982ad645d5a112606534d8567418cf64c14cb5000000000000000000000000b8ce59fc3717ada4c02eadf9682a9e934f625ebb00000000000000000000000000000000000000000000000000000000000f4240",
        "nonce": "0x49",
        "chainId": "0x3e7"
      },
      "additionalContracts": [],
      "isFixedGasLimit": false
    },
    {
      "hash": "0xfcaf2d3d125719c60ce08b56e16704b33c05305082439244cdd71d2a9b9ec194",
      "transactionType": "CALL",
      "contractName": null,
      "contractAddress": "0xa52b0805f30eab4ca61ed5f4f051b5a0f863ca4f",
      "function": "govSetConfig(address,address,address)",
      "arguments": [
        "0x10982ad645D5A112606534d8567418Cf64c14cB5",
        "0xB8CE59FC3717ada4C02eaDF9682A9e934F625ebb",
        "0xE8420D9484708E2C1023a14de331F58985f077Cc"
      ],
      "transaction": {
        "from": "0x3c7345f55389174db894c6dd37018da42551ec67",
        "to": "0xa52b0805f30eab4ca61ed5f4f051b5a0f863ca4f",
        "gas": "0x1198a",
        "value": "0x0",
        "input": "0x06c570c100000000000000000000000010982ad645d5a112606534d8567418cf64c14cb5000000000000000000000000b8ce59fc3717ada4c02eadf9682a9e934f625ebb000000000000000000000000e8420d9484708e2c1023a14de331f58985f077cc",
        "nonce": "0x4a",
        "chainId": "0x3e7"
      },
      "additionalContracts": [],
      "isFixedGasLimit": false
    }
  ],
  "receipts": [
    {
      "status": "0x1",
      "cumulativeGasUsed": "0x188704",
      "logs": [],
      "logsBloom": "0x00000000000000000000000000000000000000000000000000000000000000000000000000000000000000000000000000000000000000000000000000000000000000000000000000000000000000000000000000000000000000000000000000000000000000000000000000000000000000000000000000000000000000000000000000000000000000000000000000000000000000000000000000000000000000000000000000000000000000000000000000000000000000000000000000000000000000000000000000000000000000000000000000000000000000000000000000000000000000000000000000000000000000000000000000000000",
      "type": "0x2",
      "transactionHash": "0xce97e796327941bb03ec51bd661a5195c84b0d528fc5c5e9f29a0ea56a5d44a1",
      "transactionIndex": "0x3",
      "blockHash": "0x2da43ecf77de9743f21db3a9d4a841f86e9ed9d9c047a28ce1c3727616e044ef",
      "blockNumber": "0x193f16d",
      "gasUsed": "0x6881e",
      "effectiveGasPrice": "0x1caf742b",
      "from": "0x3c7345f55389174db894c6dd37018da42551ec67",
      "to": null,
      "contractAddress": "0xe8420d9484708e2c1023a14de331f58985f077cc"
    },
    {
      "status": "0x1",
      "cumulativeGasUsed": "0x194786",
      "logs": [
        {
          "address": "0xa52b0805f30eab4ca61ed5f4f051b5a0f863ca4f",
          "topics": [
            "0x4ac83f39568b63f952374c82351889b07aff4f7e261232a20ba5a2a6d82b9ce0",
            "0x00000000000000000000000010982ad645d5a112606534d8567418cf64c14cb5",
            "0x000000000000000000000000b8ce59fc3717ada4c02eadf9682a9e934f625ebb",
            "0x000000000000000000000000e8420d9484708e2c1023a14de331f58985f077cc"
          ],
          "data": "0x",
          "blockHash": "0x2da43ecf77de9743f21db3a9d4a841f86e9ed9d9c047a28ce1c3727616e044ef",
          "blockNumber": "0x193f16d",
          "blockTimestamp": "0x6984867c",
          "transactionHash": "0xfcaf2d3d125719c60ce08b56e16704b33c05305082439244cdd71d2a9b9ec194",
          "transactionIndex": "0x4",
          "logIndex": "0x1f",
          "removed": false
        }
      ],
      "logsBloom": "0x00000000001000000000000000002400000000000008000000000000000000000000008001000000000000000000000000000000000000000000000000001000000000020000000000001000000000000000000000000000004000000000000000000000000002000001000000000000000000000000000000000000000000100000000000000000000000000000000000000000000000000000000000000000000000000000000000000000000000000000000000000000000000000000000000000000000000000000100000000000000000000000000000000000000000000000000000000000000000000000000000000000002000000000000000000000",
      "type": "0x2",
      "transactionHash": "0xfcaf2d3d125719c60ce08b56e16704b33c05305082439244cdd71d2a9b9ec194",
      "transactionIndex": "0x4",
      "blockHash": "0x2da43ecf77de9743f21db3a9d4a841f86e9ed9d9c047a28ce1c3727616e044ef",
      "blockNumber": "0x193f16d",
      "gasUsed": "0xc082",
      "effectiveGasPrice": "0x1caf742b",
      "from": "0x3c7345f55389174db894c6dd37018da42551ec67",
      "to": "0xa52b0805f30eab4ca61ed5f4f051b5a0f863ca4f",
      "contractAddress": null
    }
  ],
  "libraries": [],
  "pending": [],
  "returns": {},
  "timestamp": 1770292861840,
  "chain": 999,
  "commit": "fa637ec"
}